:020000040800F2
:1000000000000220DDD00008211700082317000897
:10001000251700082717000829170008000000000E
:100020000000000000000000000000002B17000886
:100030002D170008000000002F17000831170008D6
:1000400031D1000831D1000831D1000831D1000888
:1000500031D1000831D1000831D1000831D1000878
:1000600031D1000831D1000831D10008391700081A
:1000700031D1000831D1000831D1000831D1000858
:1000800031D1000831D1000831D1000831D1000848
:1000900031D1000831D1000831D1000831D1000838
:1000A00031D1000831D1000831D1000831D1000828
:1000B00031D1000831D1000831D1000831D1000818
:1000C00031D1000831D1000831D1000831D1000808
:1000D00031D1000831D1000831D1000831D10008F8
:1000E00031D1000831D100080000000031D10008F2
:1000F00031D1000831D1000831D1000831D10008D8
:1001000031D100084917000831D1000831D1000869
:1001100031D1000831D1000831D1000831D10008B7
:1001200031D1000831D1000831D1000831D10008A7
:1001300031D1000831D1000831D1000831D1000897
:1001400000000000000000000000000000000000AF
:1001500031D1000831D1000831D1000831D1000877
:1001600031D1000831D1000831D1000831D1000867
:1001700031D1000831D100085917000831D10008E9
:1001800031D1000831D1000831D1000831D1000847
:1001900031D1000831D1000831D1000831D1000837
:1001A00031D1000831D1000831D1000831D1000827
:1001B00031D1000831D1000831D1000831D1000817
:1001C00031D1000831D1000831D1000831D1000807
:1001D00031D1000831D1000831D1000831D10008F7
:1001E00031D1000831D1000831D1000831D10008E7
:1001F00031D1000831D1000831D1000831D10008D7
:1002000031D1000831D1000831D1000831D10008C6
:1002100031D100086917000831D1000831D1000838
:1002200031D1000831D1000831D1000800000000B0
:1002300031D1000831D100080000000031D10008A0
:1002400031D1000831D1000831D1000831D1000886
:1002500031D1000831D1000831D1000831D1000876
:1002600031D1000831D1000831D1000831D1000866
:1002700031D1000831D1000831D100080000000060
:1002800031D1000831D1000831D100080000000050
:080290000000000031D100085C
:1002A00001F0FF01102A2BDB10F0070F08D010F827
:1002B000013B013A8B422DD010F0070F42B3F6D12B
:1002C000F0B441EA012141EA014122F007047FF044
:1002D00000070023F0E80256083C85EA010586EA9B
:1002E000010685FA47F5A3FA87F586FA47F6A5FAD7
:1002F00087F68EB9EED1F0BC01F0FF0102F00702E3
:1003000032B110F8013B013A83EA010313B1F8D18D
:100310000020704701387047002D06BF354603386E
:10032000073815F0010F07D1013015F4807F02BFA7
:10033000013015F4C03F0130F0BC0138704700BFF8
:100340000348044B834202D0034B03B11847704764
:10035000D4000024D4000024000000000548064B0F
:100360001B1AD90F01EBA301491002D0034B03B1B3
:1003700018477047D4000024D40000240000000077
:1003800010B5064C237843B9FFF7DAFF044B13B1DD
:100390000448AFF300800123237010BDD400002473
:1003A000000000004CDB000808B5054B1BB10549F7
:1003B0000548AFF30080BDE80840FFF7CFBF00BF9E
:1003C00000000000D80000244CDB0008254B5B69CE
:1003D00013F4003F13D1BFF34F8FBFF36F8F214B47
:1003E0000022C3F85022BFF34F8FBFF36F8F5A69BB
:1003F00042F400325A61BFF34F8FBFF36F8F194B36
:100400005B6913F4803F2BD110B4164B0022C3F864
:100410008420BFF34F8FD3F88040C4F34E3000E008
:100420001846C4F3C90243F6E07303EA401343EAF3
:1004300082730C49C1F860321346013A002BF2D1A5
:10044000431E0028ECD1BFF34F8F4B6943F4803338
:100450004B61BFF34F8FBFF36F8F5DF8044B704755
:10046000704700BF00ED00E070B584B00024009438
:1004700001940294039405F00BFE01258DF80050C1
:100480008DF801404FF0104601961B238DF808307F
:100490008DF80B408DF80F408DF80E408DF80D4013
:1004A0008DF80C508DF80A508DF80940684605F01B
:1004B0000DFE8DF800508DF80150019616238DF831
:1004C000083005238DF80B308DF80F508DF80E5045
:1004D0008DF80D408DF80C408DF80A508DF80940CC
:1004E000684605F0F3FD8DF800504FF0105301936E
:1004F00012238DF8083003238DF80B308DF80F5040
:100500008DF80E508DF80D5002238DF801308DF8C6
:100510000A508DF809408DF80C40684605F0D6FD6C
:10052000042005F0C3FD04B070BD000070B50546A1
:100530000C46094E01220821304603F0F0FD681EEA
:1005400005F058FE00220821304603F0E8FD601E49
:1005500005F050FE70BD00BF0010025808B5114AEA
:1005600013680133136005F03FFE0F4B1B68C01A80
:10057000B0F57A7F0BD20D4A1368013313600C4B30
:1005800001221A6008210B4803F0CFFD08BD05F0D9
:100590002BFE054B1860054B1968074A11600022B5
:1005A0001A60E8E7FC000024F4000024F0000024B6
:1005B0000401002400100258F8000024034B01221B
:1005C0001A60034A13680133136070470001002466
:1005D000FC00002408B5FA210520FFF7A7FFFAE781
:1005E000084B1B6A83420CD010B5064C2062204693
:1005F00006F0D2FB204606F07FFB00B910BDFFF7E6
:10060000E9FF7047F097002438B5074B9C6C44B164
:100610000546204604F074F9E561204603F09EFF8C
:1006200000B938BDFFF7D6FFF097002438B504466F
:100630001C4D284606F032FC0A2005F0DBFD2B6835
:100640001F225A61DA6842F00902DA60E4B9002038
:10065000FFF7C6FF2A68136823F0080313604FF4FE
:100660008070FFF7D1FF09210F4809F085FB50206A
:1006700005F0C0FD00210D4B19604FF416530C4AD4
:10068000284606F095FB38BD0820FFF7A9FF054B6B
:100690001A68136843F0080313600020FFF7B4FFE3
:1006A000F1E700BFF09700244098002404010024E3
:1006B0000801002408B50020FFF7B8FF08BD0000BE
:1006C00008B50120FFF7B2FF034800F001FE00204B
:1006D000FFF7ACFF08BD00BFF097002400B59DB048
:1006E0004C22002109A80CF02BFE2022002101A899
:1006F0000CF026FE022005F011FC002300932B4B8A
:100700009A6942F440429A619B6903F44043009322
:10071000274BDA6A42F00102DA62DB6A03F0010376
:100720000093009B214B9B6913F4005FFAD02223B6
:10073000099301230C9340220D920F9302231293ED
:1007400000221392202114914FF4F0711591169309
:1007500017931893042319931A921B9209A801F076
:100760001DF8F0B93F230193032302930023039361
:10077000082304934023059306934FF48062079265
:10078000089304210DEB010001F0AEFC58B94FF4C1
:1007900000224FF08071002001F058FB1DB05DF881
:1007A00004FBFFF717FFFFF715FF00BF00480258D3
:1007B000000400582DE9F04188B0FFF755FEFFF71F
:1007C00005FE05F0D7FCFFF789FF00F0C7F800F041
:1007D0008DFA00F055F900F0A5FA00F0B3FB00F037
:1007E00039FF00F01BFB0BF0C3F84A4C4A49204686
:1007F00007F0E5FB4949204607F00AFC4849204636
:1008000007F032FE322005F0F5FC0AF0D5FE454B2C
:100810009C6B0021019110230093434B1B683A22EB
:100820004248A0472BE003AE414BDA8941493046AC
:100830000CF064FD3C4F01964FF00C08CDF80080A1
:1008400010233A883A2100200AF088FE4FF4FA710A
:100850000520FFF76BFE3446374D0FCD0FC42B68D4
:1008600023600196CDF8008010233A883A210020B9
:100870000AF074FE4FF4FA710520FFF757FE4FF4AB
:1008800000512E4803F044FC0028CCD004222C490F
:100890002C480CF0B1F82C4B1870642005F0AAFC21
:1008A000FFF708FF012400E02C46284B1B6893B992
:1008B0004FF40051214803F02BFC0546012C08BFE2
:1008C0000028F1D1FFF7FCFE4FF4967005F092FC82
:1008D000FFF7F0FEE8E700211C4B1960502301935D
:1008E000114B1B6800931A4B0A4610480AF018FA7D
:1008F00003AD184B1A68184928460CF0FFFC019507
:100900000C23009310233C22052108460AF026FE02
:10091000CEE700BF94980024609700243497002409
:100920001097002410000024489F0024689F002492
:10093000349A002464DB000878DB000800080258C1
:10094000D4A10024A49F00240C97002404010024B7
:10095000081A0024F80000248CDB0008F0B58DB0E4
:1009600000240794089409940A940B94404BD3F8FC
:10097000E02042F01002C3F8E020D3F8E02002F0BB
:1009800010020192019AD3F8E02042F00402C3F869
:10099000E020D3F8E02002F004020292029AD3F899
:1009A000E02042F08002C3F8E020D3F8E02002F01B
:1009B00080020392039AD3F8E02042F00102C3F8C8
:1009C000E020D3F8E02002F001020492049AD3F868
:1009D000E02042F00802C3F8E020D3F8E02002F063
:1009E00008020592059AD3F8E02042F00202C3F80B
:1009F000E020D3F8E03003F002030693069B1D4D80
:100A000022460821284603F08AFB01224FF4205198
:100A1000284603F084FB08230793012708970994CD
:100A20000A9407A9284603F0BBF94FF40053079333
:100A300008940226099607A90F4803F0B1F94FF46C
:100A4000205307930897099403230A9307A928467C
:100A500003F0A6F94FF480730793089609940A9659
:100A60000B9407A9054803F09BF90DB0F0BD00BF3A
:100A700000440258001002580008025800000258B2
:100A800008B51748174B036000234360202282609B
:100A9000C36003614361836108220262436283622F
:100AA000C362036306F028F9B0B90D4B1B68DA681E
:100AB00042F00102DA60DA6842F00202DA60DA68D3
:100AC00042F00402DA60DA6842F01002DA60DA68B2
:100AD00042F00802DA6008BDFFF77CFDE5E700BFE1
:100AE000F097002400000248F0B58DB00023079372
:100AF000089309930A930B930268574B9A4201D0CB
:100B00000DB0F0BD0446554BD3F8DC2042F0010295
:100B1000C3F8DC20D3F8DC2002F001020192019A34
:100B2000D3F8E02042F01002C3F8E020D3F8E02030
:100B300002F010020292029AD3F8E02042F0010281
:100B4000C3F8E020D3F8E02002F001020392039AF8
:100B5000D3F8E02042F00402C3F8E020D3F8E0200C
:100B600002F004020492049AD3F8E02042F0080252
:100B7000C3F8E020D3F8E02002F008020592059ABD
:100B8000D3F8E02042F00202C3F8E020D3F8E030CE
:100B900003F002030693069B73230793022708972B
:100BA0000D260B9607A92E4803F0FAF85023079359
:100BB0000897002509950A950B9607A9294803F07F
:100BC000EFF8C0230793089709950A950B9607A994
:100BD000254803F0E5F808230793089709950A9537
:100BE0000B9607A9214803F0DBF8802307930897A9
:100BF00009950A950B9607A91D4803F0D1F81D48E1
:100C00001D4B03604B2343608560C5604FF48063D8
:100C100003614FF4805343614FF480438361C561A6
:100C20004FF4403303620423436203238362C562AB
:100C3000056303F093FC58B90E4BA3649C63002238
:100C400011464E2005F0F8F94E2005F005FA57E759
:100C5000FFF7C0FCF0E700BF000002480044025864
:100C6000001002580000025800080258000C0258F8
:100C70000004025878970024100002400268144BC8
:100C80009A4200D0704710B50446124AD2F8DC30C0
:100C900023F00103C2F8DC3073210F4803F090F910
:100CA00050210E4803F08CF9C0210D4803F088F95B
:100CB00008210C4803F084F980210B4803F080F9E7
:100CC000A06C03F01DFE4E2005F0CAF910BD00BF58
:100CD0000000024800440258001002580000025868
:100CE00000080258000C02580004025800B583B0F6
:100CF0000B4BD3F8D82042F00102C3F8D820D3F828
:100D0000D83003F001030193019B002211460B2010
:100D100005F092F90B2005F09FF903B05DF804FB94
:100D20000044025808B51248124B0360124B43604E
:100D3000002383600122C260036143618361C36158
:100D4000036205F063FC50B90021094805F02AFF51
:100D500040B90021064805F053FF30B908BDFFF740
:100D600039FCF1E7FFF736FCF3E7FFF733FCF5E773
:100D700040980024005400403027306010B5B8B0CF
:100D80000446002133913491359136913791C02238
:100D900002A80CF0D5FA22681D4B9A4201D038B057
:100DA00010BD08220023CDE902234FF40053239302
:100DB00002A801F01FFC40BB164CD4F8E03043F011
:100DC0000203C4F8E030D4F8E03003F002030093EB
:100DD000009B4FF4407333931223349301233593D4
:100DE000002336930423379333A90B4802F0D8FF2E
:100DF000D4F8E83043F40013C4F8E830D4F8E8300D
:100E000003F400130193019BC9E7FFF7E3FBD3E76A
:100E100000540040004402580004025808B5094834
:100E2000094B03600023436083604FF48042C2603B
:100E300003610523436107F0E6FB00B908BDFFF736
:100E4000C9FBFBE79498002400700052F0B5BBB0DA
:100E50000446002135913691379138913991C0225D
:100E600004A80CF06DFA2268324B9A4201D03BB0D4
:100E7000F0BD4FF480320023CDE9042320230693F4
:100E8000812307930223089309930A9340230B932A
:100E90004FF48033189304A801F0ACFB002846D12E
:100EA000254BD3F8D42042F48032C3F8D420D3F8B1
:100EB000D42002F480320192019AD3F8E02042F06B
:100EC0000402C3F8E020D3F8E02002F0040202920A
:100ED000029AD3F8E02042F00802C3F8E020D3F8E9
:100EE000E03003F008030393039B4FF4F85335936A
:100EF0000227369700243794032638960C25399517
:100F000035A90E4802F04CFF0423359336973794E9
:100F10003896399535A90A4802F042FF2246214603
:100F2000312005F089F8312005F096F89FE7FFF7AA
:100F300051FBB5E700700052004402580008025807
:100F4000000C025808B51548154B03604FF4800398
:100F500043604FF4C02383600723C3600023036111
:100F600043614FF0806282614FF00052C2610362C0
:100F700043628362C3624FF0804242638363C36310
:100F8000036443648364C36403654365836507F056
:100F900045FD00B908BDFFF71DFBFBE710990024D4
:100FA0000034014010B5B8B00446002133913491AB
:100FB000359136913791C02202A80CF0C1F9226810
:100FC0001D4B9A4201D038B010BD4FF4005200239F
:100FD000CDE902234FF440331B9302A801F00AFB32
:100FE00038BB164BD3F8F02042F40052C3F8F0207F
:100FF000D3F8F02002F400520092009AD3F8E020D7
:1010000042F01002C3F8E020D3F8E03003F0100300
:101010000193019B4FF4A0433393022334930022A6
:10102000359236930523379333A9054802F0B8FE6D
:10103000C9E7FFF7CFFAD4E7003401400044025873
:1010400000100258A0F14103DBB2192B01D8203067
:10105000C0B27047114B1B780BB10120704710B51F
:101060008AB001220E490D480BF0C6FC034610B9A8
:1010700001200AB010BD02AC0A4A202120460CF023
:10108000FBF801940C2300930523074A12883221B0
:1010900000200AF063FA0020EBE700BFA49F0024C1
:1010A000D4A1002494DB0008489F00242DE9F041DE
:1010B00004460E462E210CF05DF9002869D0054645
:1010C0004078FFF7BFFF80466A2818D00027B8F1A4
:1010D0006A0F2FD0002357EA03005BD00622304965
:1010E00020460CF035F928B106222E4920460CF096
:1010F0002FF998BBA01DA84250D200233CE0A8784D
:10110000FFF7A0FF702801D00027E0E7E878FFF79D
:1011100099FF652801D00027D9E72879FFF792FFCA
:10112000672801D00027D2E76B790BB90127CEE7FA
:101130000027CCE7A878FFF785FF702801D00023AF
:10114000C9E7E878FFF77EFF672801D00023C2E7F0
:101150002B790BB90123BEE70023BCE72378702B62
:1011600018BF502B18D1601CC5E703EB830302EBBB
:101170004302A2F130030130A84207D20278A2F163
:101180003001C9B20929F0D9002003E03360012001
:1011900000E00020BDE8F0810020FBE70020F9E737
:1011A000A4DB0008ACDB000810B594B0154908A812
:1011B0000BF0C2FE08B1002419E0002402A908A81F
:1011C0000BF013FF80B99DF811306BB10023019330
:1011D00001A90DF11100FFF769FF0028EED0019B76
:1011E000A342EBD35C1CE9E708A80BF0ECFE630913
:1011F000054AA2FB0323DB09044800FB134014B09B
:1012000010BD00BFB4DB0008C55A7C0AA0860100EF
:101210002DE9F04387B007468946904614680025BB
:101220002E4627E06309264AA2FB0323DB09254A51
:1012300002FB1343244A494638460CF01DF8694620
:1012400038460BF0F9FE062814BF0023012386F070
:10125000010213422ED1042808BF43F00103E3B971
:10126000631C5C09164AA2FB0424E409154A02FB2C
:1012700014340135B5F57A7F1ED2002ED2D0630921
:101280000F4AA2FB0323DB090E4A02FB13430F4A5A
:10129000494638460BF0F0FFD1E701346309084AAC
:1012A000A2FB0323DB09074A02FB1343C8F8003003
:1012B000002002E00126DDE7072007B0BDE8F0834B
:1012C000C55A7C0AA0860100C4DB0008B8DB000810
:1012D000F0B5ADF5297D0546FFF7BCFE20B9002627
:1012E00030460DF5297DF0BDFFF75EFFA44A106082
:1012F0002021A0A8FFF78CFF0646002842D1A14B71
:1013000001930C23009305239F4A12883221002069
:101310000AF024F90622A0A904A80BF09DFB0746B9
:1013200000283CD1994E4FF4E022002130460CF0C9
:1013300007F80024964B1C60964B1C60964808F0FA
:101340003BFD322004F056FF2B681F225A612A68A9
:10135000D36843F00903D360904B01930C230093AF
:101360000523894A1288322120460AF0F7F84FF403
:10137000E03332460221284605F01AFD064600BB3E
:10138000002432E0864B01930C23009305237E4A10
:101390001288322100200AF0E1F80026A0E790AC84
:1013A0000346804A402120460BF066FF01940C233F
:1013B00000930523744A1288322100200AF0CEF8E7
:1013C0008EE7794B01930C23009305236E4A128814
:1013D000322120460AF0C2F804A80BF098FD3E46E0
:1013E0007EE70A2004F006FF0A346A4B1B6813B933
:1013F000B4F57A7FF5D3674B1B680BB1002415E079
:101400006A4B01930C23009305235F4A1288322113
:1014100000200AF0A3F8284605F040FD04A80BF0D0
:1014200076FD5DE70A2004F0E5FE0A34584B1B68A0
:1014300013B9B4F57A6FF5D3554B1B6843B1284601
:1014400005F02CFD0546A8B900224FF4E02128E064
:10145000574B01930C23009305234B4A12883221EA
:1014600000200AF07BF8284605F018FD04A80BF0D0
:101470004EFD35E74F4B01930C2300930523424A61
:101480001288322100200AF069F804A80BF03FFD11
:1014900026E73E48805CFF282BD0B1F5E02F07D12E
:1014A0001A46531CB3F5E02F29D2B1F5E02FF0D046
:1014B0003648805CFF28F3D13448C05CD928EFD18E
:1014C0000232B2F5E02F18BFB1F5E02F01D0914202
:1014D00018D3394B01930C23009305232A4A128811
:1014E000322100200AF03AF804A80BF010FD2E4635
:1014F000F6E62648C05CD828CFD11146CDE74FF498
:10150000E022DEE7541A0023039303AB22461F4870
:10151000014404A80BF0B1FB034610B9039AA242A0
:1015200014D090AC254A402120460BF0A5FE019432
:101530000C2300930523144A1288322100200AF05C
:101540000DF804A80BF0E3FC2E46C9E604A80BF046
:1015500092FC04A80BF0DBFC90AC039B184A4021E2
:1015600020460BF089FE01940C2300930523064AC4
:1015700012883221002009F0F1FF0126B0E600BFF9
:1015800008970024ECDB0008489F002458A300249F
:1015900004010024000100244098002414DC000809
:1015A000D8DB000800DC000824DC000838DC000878
:1015B00048DC000858DC00086CDC00087CDC000813
:1015C0008CDC000802680A4B9A4200D0704782B057
:1015D000084BD3F8F02042F00102C3F8F020D3F812
:1015E000F03003F001030193019B02B0704700BF8C
:1015F000000001400044025800B587B00023019369
:10160000029303930493059302680F4B9A4202D00E
:1016100007B05DF804FB0D4BD3F8E02042F0100258
:10162000C3F8E020D3F8E03003F010030093009BF0
:101630004FF480630193022302930123059301A9D0
:10164000034802F0ADFBE3E700000140004402580C
:101650000010025810B596B00024139414941594F9
:101660000C940D940E940F941094119412942C22B7
:10167000214601A80BF064FE2748284B03600B238A
:101680004360846040F2E733C36004614461846175
:1016900008F020F8002833D10023139314931593F6
:1016A00013A91D4808F0BCF900282CD160230C9325
:1016B00000230D930E9308220F921093119312930F
:1016C00004220CA9144808F07FF8F8B9002301930C
:1016D00002930393049305934FF4005206920793E9
:1016E00008934FF0007209920A930B9301A90A48DC
:1016F00008F0E6F968B90848FFF77EFF16B010BD9C
:10170000FEF768FFC8E7FEF765FFCFE7FEF762FF69
:10171000DCE7FEF75FFFEEE7E499002400000140FC
:10172000FEE7FEE7FEE7FEE7FEE77047704770471B
:1017300008B504F04DFD08BD08B5024803F0EEFD04
:1017400008BD00BF7897002408B5024806F0BCFF2A
:1017500008BD00BF9498002408B5024805F0F2FBCC
:1017600008BD00BFF097002408B5024807F072FEDC
:1017700008BD00BF9899002482B0074BD3F8F4202D
:1017800042F00202C3F8F420D3F8F43003F002036D
:101790000193019B02B0704700440258002800F0FA
:1017A000398338B50446036813F0010F25D0944AF5
:1017B000136903F03803926A102B15D0182B0FD041
:1017C0006368B3F5803F3FD0002B53D18C4B1A6830
:1017D00022F480321A601A6822F480221A6038E0FB
:1017E00002F00302022AEBD1854B1B6813F4003F81
:1017F00003D06368002B00F00F83236813F0020FFF
:1018000000F0A1807E4A1369926A13F038035AD01F
:10181000182B55D0E368002B00F0DE8078490A6869
:1018200022F0190213430B6004F0DEFC0546744BF2
:101830001B6813F0040F40F0AD8004F0D5FC401B92
:101840000228F4D90320EEE26D4A136843F4803392
:10185000136063682BB304F0C7FC0546684B1B6834
:1018600013F4003FC9D104F0BFFC401B6428F5D934
:101870000320D8E2B3F5A02F09D0614B1A6822F4F7
:1018800080321A601A6822F480221A60E1E75C4B09
:101890001A6842F480221A601A6842F480321A6090
:1018A000D7E704F0A1FC0546554B1B6813F4003F35
:1018B000A3D004F099FC401B6428F5D90320B2E2C0
:1018C00012F0030FA6D14E4B1B6813F0040F03D088
:1018D000E368002B00F0A282494A136823F0190341
:1018E000E1680B43136004F07FFC0546444B1B6822
:1018F00013F0040F06D104F077FC401B0228F5D941
:10190000032090E204F08AFC41F20303984212D8CB
:101910002269402A07D03A494B6823F47C3343EAD2
:1019200002334B600FE0364A536823F47C3343F4B0
:101930000033536007E0324A536823F0FE432169C5
:1019400043EA01635360236813F0100F00F08880AE
:101950002B4A136903F03803926A082B56D0182BD0
:1019600050D0E369002B00F0B880254A136843F09B
:101970008003136004F038FC0546214B1B6813F408
:10198000807F40F0888004F02FFC401B0228F4D9AF
:10199000032048E204F042FC41F20303984212D8CB
:1019A0002269402A07D016494B6823F47C3343EA66
:1019B00002334B60C7E7124A536823F47C3343F485
:1019C00000335360BFE70E4A536823F0FE4321699A
:1019D00043EA01635360B6E7094A136823F0010341
:1019E000136004F001FC0546054B1B6813F0040F5F
:1019F000A9D004F0F9FB401B0228F5D9032012E21C
:101A00000044025802F00302012AAAD1A14B1B682C
:101A100013F4807F03D0E369802B40F0018204F04F
:101A2000FDFB41F20303984212D8226A202A07D014
:101A300098494B6823F0F84343EA82634B600FE018
:101A4000944A536823F0F84343F08043536007E01F
:101A5000904AD36823F07C53216A43EA0163D36040
:101A6000236813F0080F60D06369002B49D0894ABE
:101A7000536F43F00103536704F0B6FB0546854BF3
:101A80005B6F13F0020F50D104F0AEFB401B022835
:101A9000F5D90320C7E104F0C1FB41F203039842EA
:101AA00012D8226A202A07D07A494B6823F0F843DB
:101AB00043EA82634B60D3E7764A536823F0F843E6
:101AC00043F080435360CBE7724AD36823F07C53E2
:101AD000216A43EA0163D360C2E76E4A136823F0C8
:101AE0008003136004F080FB05466A4B1B6813F407
:101AF000807FB5D004F078FB401B0228F5D9032085
:101B000091E1644A536F23F00103536704F06CFBC7
:101B10000546604B5B6F13F0020F06D004F064FBC8
:101B2000401B0228F5D903207DE1236813F0200F24
:101B300029D0A3699BB1574A136843F480531360BB
:101B400004F052FB0546534B1B6813F4005F1AD197
:101B500004F04AFB401B0228F5D9032063E14D4AFB
:101B6000136823F48053136004F03EFB0546494B91
:101B70001B6813F4005F06D004F036FB401B0228FC
:101B8000F5D903204FE1236813F0040F21D1636AD4
:101B9000002B00F047813F4A126902F03802182AF0
:101BA00000F0EE80022B79D03A4A136823F080735C
:101BB000136004F019FB0446364B1B6813F0007FDA
:101BC00000F0DC8004F010FB001B0228F4D9032095
:101BD00029E1314A136843F48073136004F004FB75
:101BE00005462D4B1B6813F4807F06D104F0FCFAE8
:101BF000401B6428F5D9032015E1A368012B0AD006
:101C00000BBB244B1A6F22F001021A671A6F22F0E5
:101C100004021A6704E01F4A136F43F001031367BD
:101C2000A36833B304F0E0FA05461A4B1B6F13F0B8
:101C3000020FACD104F0D8FA401B41F2883398422D
:101C4000F3D90320EFE0052B09D0124B1A6F22F0D5
:101C500001021A671A6F22F004021A67E0E70D4BBF
:101C60001A6F42F004021A671A6F42F001021A67F3
:101C7000D6E704F0B9FA0546064B1B6F13F0020FC6
:101C800085D004F0B1FA401B41F288339842F3D971
:101C90000320C8E00044025800480258694A13680B
:101CA00023F08073136004F09FFA0546654B1B68B0
:101CB00013F0007F06D004F097FA401B0228F5D9F4
:101CC0000320B0E05F4B996A5F4A0A40A16AE06A6C
:101CD00041EA00110A439A62226B013AC2F30802F8
:101CE000616B0139490289B20A43A16B01390904C8
:101CF00001F4FE010A43E16B0139090601F0FE41DE
:101D00000A431A63DA6A22F00102DA625A6B6FF34D
:101D1000CF02A16C42EAC1025A63DA6A22F00C02D5
:101D2000216C0A43DA62DA6A22F00202616C0A4329
:101D3000DA62DA6A42F48032DA62DA6A42F4003253
:101D4000DA62DA6A42F48022DA62DA6A42F0010286
:101D5000DA621A6842F080721A6004F045FA0446AA
:101D6000384B1B6813F0007F06D104F03DFA001BCE
:101D70000228F5D9032056E0002054E0002052E06C
:101D8000304A916A106B012B4ED001F00303A26A16
:101D900093424BD1C1F30511E36A994248D1C0F394
:101DA0000802236B013B9A4244D1C0F34622636B85
:101DB000013B9A4240D1C0F30642A36B013B9A42D9
:101DC0003CD1C0F30660E36B013B984238D11D4B18
:101DD0005B6BC3F3CC03A26C9A4201D1002022E0DA
:101DE000184AD36A23F00103D36204F0FDF90546D3
:101DF00004F0FAF9A842FBD0124A536B6FF3CF03F9
:101E0000A16C43EAC1035363D36A43F00103D36275
:101E1000002008E001207047012004E0012002E0DA
:101E2000012000E0002038BD0120FCE70120FAE796
:101E30000120F8E70120F6E70120F4E70120F2E7AE
:101E40000120F0E7004402580CFCFFFF70B588B099
:101E50000C46154610BB234ED6F8E03043F0010384
:101E6000C6F8E030D6F8E03003F001030193019B9F
:101E70004FF48073039302230493032306930023F8
:101E80000593079303A9184801F08AFF336923F0EB
:101E9000FE7325431D43356108B070BD114ED6F861
:101EA000E03043F00403C6F8E030D6F8E03003F049
:101EB00004030293029B4FF40073039302230493E1
:101EC0000323069300230593079303A9074801F012
:101ED00067FF336923F07E4344EAC5141C43346131
:101EE000DAE700BF00440258000002580008025818
:101EF000754B1B6903F03803102B00F0DE80182BA4
:101F00000FD0002B40F0DB806F4B1B6813F0200FCD
:101F100000F0D7806C4B1B68C3F3C1036B48D840FB
:101F2000704710B4684B9A6A02F003029C6AC4F3CB
:101F30000510D96A01F001015B6BC3F3CC0301FB0F
:101F400003F307EE903AF8EE677A14F47C7F77D0CB
:101F5000012A4AD0022A76D0002A40F091805A4BBA
:101F60001B6813F0200F23D057490A68C2F3C1023F
:101F7000564BD34007EE103AF8EE476A07EE100AC8
:101F8000B8EE476A86EE867A0B6BC3F3080306EE5B
:101F9000903AF8EE666A9FED4E6A67EE867A76EEC4
:101FA000A77AF7EE006A77EEA67A27EE277A38E06E
:101FB00007EE100AF8EE476A9FED466A86EE267A2B
:101FC000414B1B6BC3F3080306EE903AF8EE666ACA
:101FD0009FED3F6A67EE867A76EEA77AF7EE006AA3
:101FE00077EEA67A27EE277A1BE007EE100AF8EEC6
:101FF000476A9FED396A86EE267A334B1B6BC3F333
:10200000080306EE903AF8EE666A9FED316A67EED5
:10201000867A76EEA77AF7EE006A77EEA67A27EE52
:10202000277A294B1B6BC3F34623013307EE903A03
:10203000F8EE677AC7EE276AFCEEE67A17EE900AAA
:102040005DF8044B704707EE100AF8EE476A9FED03
:10205000236A86EE267A1C4B1B6BC3F3080306EE3D
:10206000903AF8EE666A9FED1A6A67EE867A76EE27
:10207000A77AF7EE006A77EEA67A27EE277AD0E7FE
:1020800007EE100AF8EE476A9FED136A86EE267A8D
:102090000D4B1B6BC3F3080306EE903AF8EE666A2D
:1020A0009FED0B6A67EE867A76EEA77AF7EE006A06
:1020B00077EEA67A27EE277AB3E7094870470948F2
:1020C00070470248704700BF004402580090D00398
:1020D000000000390024744C0024744A20BCBE4B1C
:1020E00040787D0100093D00002800F0328170B584
:1020F0000D4604469B4B1B6803F00F038B420BD22B
:10210000984A136823F00F030B431360136803F01E
:102110000F038B4240F01F81236813F0040F0CD093
:102120002269914B9B6903F070039A4205D98E494D
:102130008B6923F070031A438A61236813F0080F38
:102140000CD06269884BDB6903F070039A4205D9B1
:102150008549CB6923F070031A43CA61236813F0E1
:10216000100F0CD0A269804BDB6903F4E0639A4244
:1021700005D97D49CB6923F4E0631A43CA6123681A
:1021800013F0200F0CD0E269774B1B6A03F0700349
:102190009A4205D974490B6A23F070031A430A6204
:1021A000236813F0020F0CD0E2686F4B9B6903F0B9
:1021B0000F039A4205D96C498B6923F00F031A4328
:1021C0008A61236813F0010F41D0674A936923F4B1
:1021D0007063A1680B4393616368022B0AD0032BE1
:1021E00027D0012B2CD0604A126812F0040F06D1C0
:1021F0000120ADE0126812F4003F00F0AE805A49B1
:102200000A6922F0070213430B6103F0EDFF064653
:10221000554B1B6903F038036268B3EBC20F16D04D
:1022200003F0E2FF801B41F288339842F0D903208B
:102230008EE04D4A126812F0007FE0D1012087E065
:10224000494A126812F4807FD9D1012080E02368C6
:1022500013F0020F0CD0E268434B9B6903F00F03AD
:102260009A4205D240498B6923F00F031A438A61D1
:102270003C4B1B6803F00F03AB420AD9394A136881
:1022800023F00F032B431360136803F00F03AB42DB
:1022900065D1236813F0040F0CD02269324B9B697F
:1022A00003F070039A4205D22F498B6923F0700323
:1022B0001A438A61236813F0080F0CD062692A4B15
:1022C000DB6903F070039A4205D22749CB6923F0FA
:1022D00070031A43CA61236813F0100F0CD0A2696F
:1022E000214BDB6903F4E0639A4205D21E49CB69B6
:1022F00023F4E0631A43CA61236813F0200F0CD063
:10230000E269194B1B6A03F070039A4205D2164921
:102310000B6A23F070031A430A62FFF7E9FD1249C2
:102320008B69C3F30323114AD35C03F01F03D84026
:102330008B6903F00F03D35C03F01F0320FA03F350
:102340000B4A13600B4B18600B4B186803F0EAFE46
:1023500070BD012070470120FAE70120F8E7012055
:10236000F6E700BF0020005200440258ECDC0008F1
:10237000080000240C0000240400002408B5FFF726
:10238000B7FD0B4A9369C3F303230A49CB5C03F0FF
:102390001F0320FA03F3926902F00F02885C00F039
:1023A0001F0023FA00F0044A1060044A136008BDBD
:1023B00000440258ECDC0008080000240C00002453
:1023C00008B5FFF7DBFF054BDB69C3F30213044AD3
:1023D000D35C03F01F03D84008BD00BF004402587F
:1023E000ECDC0008404B9B6A03F00303032B79D01D
:1023F00070B505460E463C4A136823F080631360AF
:1024000003F0F2FE0446384B1B6813F0006F06D051
:1024100003F0EAFE031B022BF5D9032070BD324BFB
:102420009A6A22F47C32296842EA01329A626A6826
:10243000013AC2F30802A9680139490289B20A4384
:10244000E9680139090401F4FE010A4329690139E7
:10245000090601F0FE410A439A63DA6A22F0C002DB
:1024600069690A43DA62DA6A22F02002A9690A433A
:10247000DA62DA6A22F01002DA62DA6B6FF3CF0204
:10248000E96942EAC102DA63DA6A42F01002DA620A
:10249000C6B91A46DB6A43F40023D362124A1368B2
:1024A00043F08063136003F09FFE04460E4B1B68ED
:1024B00013F0006F14D103F097FE001B0228F5D92A
:1024C0000320ABE7012E05D0074AD36A43F400137B
:1024D000D362E3E7044AD36A43F48013D362DDE7AF
:1024E00000209BE70120704700440258404B9B6A44
:1024F00003F00303032B79D070B505460E463C4A22
:10250000136823F08053136003F06EFE0446384BCB
:102510001B6813F0005F06D003F066FE031B022B5E
:10252000F5D9032070BD324B9A6A22F07C7229687B
:1025300042EA01529A626A68013AC2F30802A96843
:102540000139490289B20A43E9680139090401F4F1
:10255000FE010A4329690139090601F0FE410A43D7
:102560001A64DA6A22F4406269690A43DA62DA6A52
:1025700022F40072A9690A43DA62DA6A22F48072EC
:10258000DA625A6C6FF3CF02E96942EAC1025A6417
:10259000DA6A42F48072DA62C6B91A46DB6A43F438
:1025A0008003D362124A136843F08053136003F030
:1025B0001BFE04460E4B1B6813F0005F14D103F0A2
:1025C00013FE001B0228F5D90320ABE7012E05D02E
:1025D000074AD36A43F08073D362E3E7044AD36ABD
:1025E00043F40003D362DDE700209BE7012070473E
:1025F00000440258F8B50446036813F0006F30D069
:10260000836EB3F5001F26D00ED8ABB1B3F5801F93
:1026100007D102210830FFF7E5FE054695B12E46A9
:1026200021E0012635461EE0B3F5401F01D100250B
:1026300008E00126354616E0984AD36A43F4003391
:10264000D3620025954A136D23F44013A16E0B430A
:102650001365002607E002212830FFF747FF0546F3
:10266000DCE700263546236813F4807F14D0A36D81
:10267000042B31D8DFE803F0032229080800874A39
:10268000D36A43F40033D3624DBB844A136D23F005
:102690000703A16D0B431365236813F4007F38D043
:1026A000E36D802B4AD01FD833B3402B19D10021C2
:1026B00004F10800FFF796FE054622E0002104F130
:1026C0000800FFF78FFE0546DEE7002104F1280031
:1026D000FFF70CFF0546D7E701263546DCE72E4617
:1026E000DAE70126354614E0C02B0AD0B3F5807F27
:1026F00007D0012635460CE0684AD36A43F400331C
:10270000D36215BB654A136D23F4E073E16D0B438F
:102710001365236813F4806F3CD0D4F8A830B3F568
:10272000800F2FD016D8F3B1B3F5001F0FD10021C1
:1027300004F10800FFF756FE054619E0002104F1F8
:102740002800FFF7D3FE0546DBE72E46E1E701262A
:1027500035461FE0B3F5C00F0AD0B3F5000F07D020
:102760000126354616E04D4AD36A43F40033D3625E
:102770007DB94A4A936D23F46003D4F8A8100B4343
:10278000936507E0002104F12800FFF7AFFE05463E
:10279000EEE72E46236813F4006F2BD0D4F8AC304C
:1027A000B3F1007F53D00DD8ABB1B3F1807F06D128
:1027B000002104F10800FFF715FE054610E0012690
:1027C000354617E0B3F1407F0AD0B3F1806F07D0F0
:1027D000012635460EE0314AD36A43F40033D36212
:1027E000002D3BD12D4A936D23F0E063D4F8AC105B
:1027F0000B439365236813F0007F13D0E36C202B09
:1028000036D030D833B1102B2AD1244AD36A43F4BE
:102810000033D3629DBB214AD36C23F03003E16CBB
:102820000B43D364236813F4805F47D0236EB3F562
:10283000005F00F08D8027D893B3B3F5805F20D17F
:10284000002104F10800FFF7CDFD05462DE0002131
:1028500004F12800FFF74AFE0546C1E72E46C9E706
:1028600001263546DEE7302BD4D001263546D9E7A0
:10287000022104F10800FFF7B5FD0546CAE72E4620
:10288000D0E70126354619E0B3F5405F0DD0B3F52A
:10289000804F0AD00126354610E000BF00440258A0
:1028A000774AD36A43F40033D362002D57D1744A78
:1028B000136D23F4E043216E0B431365236813F477
:1028C000005F17D0636EB3F5003F59D04CD843B1C9
:1028D000B3F5803F45D1012104F10800FFF782FDE7
:1028E0000546002D53D1664A136D23F4E023616E33
:1028F0000B431365236813F4804F19D0D4F8B0301C
:10290000B3F1005F54D047D843B1B3F1805F40D1F9
:10291000012104F10800FFF765FD0546002D4ED1A9
:10292000574A936D23F0E043D4F8B0100B439365FE
:10293000236813F4004F51D0236FB3F1805F40D070
:10294000B3F1005F55D0002B40D00126354645E05D
:10295000002104F12800FFF7C9FD0546A5E72E4632
:10296000ACE701263546C5E7B3F5802FB9D0B3F5FE
:10297000A02FB6D0B3F5403FB3D001263546B9E716
:10298000012104F12800FFF7B1FD0546A9E72E4615
:10299000B0E701263546CBE7B3F1804FBED0B3F1A7
:1029A000A04FBBD0B3F1405FB8D001263546BFE79A
:1029B000012104F12800FFF799FD0546AEE72E46F8
:1029C000B6E72F4AD36A43F40033D362C5B92C4A21
:1029D000136D23F04053216F0B431365236813F0ED
:1029E000807F1CD0A36C032B44D8DFE803F0100BCE
:1029F0003C10012104F10800FFF7F4FC0546E5E76F
:102A00002E46EBE71E4AD36A43F40033D362A5BBDC
:102A10001B4AD36C23F00303A16C0B43D3642368DC
:102A200013F4800F2ED1236813F0010F00F0A6805D
:102A3000E36F282B00F2A080DFE803F08E9E9E9EBD
:102A40009E9E9E9E889E9E9E9E9E9E9E979E9E9EC3
:102A50009E9E9E9E8E9E9E9E9E9E9E9E8E9E9E9EB6
:102A60009E9E9E9E8E00022104F10800FFF7BAFC94
:102A70000546CCE701263546D1E72E46CFE700BF15
:102A800000440258584A136843F48073136003F0FB
:102A9000ABFB0746544B1B6813F4807F05D103F052
:102AA000A3FBC01B6428F5D90325002D4AD14F4B49
:102AB0001B6FD4F8B420534013F4407F0CD04B4B21
:102AC0001A6F22F44072196F41F480311967196F3F
:102AD00021F4803119671A67D4F8B430B3F5807FD8
:102AE00015D08DBBD4F8B43003F44072B2F5407FFA
:102AF0001ED03E4A136923F47C5313613B490B6F8C
:102B0000D4F8B420C2F30B0213430B678BE703F036
:102B10006BFB0746354B1B6F13F0020FE1D103F03F
:102B200063FBC01B41F288339842F3D90325D8E7F1
:102B30002E48026922F47C522D4901EA13131343F3
:102B40000361DBE72E466EE72E466CE7012104F1B8
:102B50000800FFF747FC0546E5B9244A536D23F00A
:102B60003803E16F0B43536508E0012104F12800AD
:102B7000FFF7BCFC0546EFE701263546236813F056
:102B8000020F17D0A36F052B29D8DFE803F00B0540
:102B9000210B0B0B2E46F1E7012104F10800FFF792
:102BA00021FC0546F5B9114A536D23F00703A16FC7
:102BB0000B435365236813F0040F2CD0D4F89430E2
:102BC000052B00F2DC80DFE803F01B15D31B1B1B79
:102BD000012104F12800FFF789FC0546E2E7012600
:102BE0003546E7E72E46E5E700480258004402581C
:102BF000CFFFFF00012104F10800FFF7F3FB0546BA
:102C0000002D40F0BF80B34A936D23F00703D4F842
:102C100094100B439365236813F0200F1DD0D4F854
:102C20009030B3F1005F00F0C18000F2B0804BB192
:102C3000B3F1805F40F0A880002104F10800FFF7A5
:102C4000D1FB0546002D40F0B880A24A536D23F019
:102C5000E043D4F890100B435365236813F0400F02
:102C60001DD0D4F89C30B3F5006F00F0BA8000F2AC
:102C7000A9804BB1B3F5806F40F0A180002104F131
:102C80000800FFF7AFFB0546002D40F0B180914AE8
:102C9000936D23F4E053D4F89C100B4393652368A1
:102CA00013F0800F1DD0D4F8A030B3F5804F00F0A2
:102CB000B38000F2A2804BB1B3F5005F40F09A8080
:102CC000002104F10800FFF78DFB0546002D40F0C0
:102CD000AA80804A936D23F46043D4F8A0100B437C
:102CE0009365236813F0080F0DD0D4F88430B3F542
:102CF000805F00F09A80774A536D23F44053D4F8F4
:102D000084100B435365236813F0100F0DD0D4F8D3
:102D10009830B3F5807F00F092806E4A936D23F473
:102D20004073D4F898100B439365236813F4002F75
:102D300000F09A80D4F8A430B3F5803F00F0898089
:102D4000B3F5003F08D0002B40F08A80002104F149
:102D50000800FFF747FB0546002D40F084805D4AE0
:102D6000936D23F44033D4F8A4100B4393657BE0B8
:102D7000012104F12800FFF7B9FB054640E70126D1
:102D8000354648E72E4646E70126354665E7B3F166
:102D9000804F3FF457AFB3F1A04F3FF453AFB3F1BF
:102DA000405F3FF44FAF0126354656E7022104F15C
:102DB0002800FFF79BFB054644E72E464DE701261A
:102DC00035466CE7B3F5805F3FF45EAFB3F5A05FC7
:102DD0003FF45AAFB3F5406F3FF456AF0126354686
:102DE0005DE7022104F12800FFF780FB05464BE771
:102DF0002E4654E70126354673E7B3F5004F3FF4FE
:102E000065AFB3F5204F3FF461AFB3F5C04F3FF46A
:102E10005DAF0126354664E7022104F12800FFF783
:102E200065FB054652E72E465BE7022104F12800C8
:102E3000FFF75CFB00283FF45EAF01265BE7022151
:102E400004F12800FFF752FB00283FF466AF01268B
:102E500063E7022104F12800FFF748FB05467BE702
:102E60000126354600E02E46236813F4802F18D043
:102E7000D4F88830B3F5001F1FD0B3F5401F07D03A
:102E8000B3F5801F20D1134AD36A43F40033D362D1
:102E9000EDB9104A536D23F44013D4F888100B4356
:102EA0005365236813F4803F2CD0236DA3B1B3F591
:102EB000803F1FD00126354624E0012104F128007F
:102EC000FFF714FB0546E3E701263546E9E72E4602
:102ED000E7E700BF00440258704AD36A43F4003366
:102EE000D36275B96D4AD36C23F48033216D0B43E3
:102EF000D36407E0022104F10800FFF773FA0546E6
:102F0000EFE72E46236813F0005F11D1236813F416
:102F1000003F28D0D4F88030B3F5807F14D010D98A
:102F2000B3F5007F15D0B3F5407F12D001261AE02B
:102F3000022104F12800FFF7D9FA0028E6D0012683
:102F4000E4E733B101260EE0544AD36A43F4003378
:102F5000D362002D69D1514A536D23F44073D4F8E4
:102F600080100B435365236813F4801F06D04B4A2F
:102F7000136D23F00043616F0B431365236813F057
:102F8000805F07D0454A136923F48043D4F8B81012
:102F90000B431361236813F4001F06D03F4A136DDF
:102FA00023F08073E16E0B431365236813F0804FA9
:102FB00009D03A4B1A6922F400421A611A69D4F80E
:102FC000BC100A431A612368002B06DA334AD36C1B
:102FD00023F04053616D0B43D364236813F4000F57
:102FE00007D02E4A536D23F44003D4F88C100B43C2
:102FF0005365636813F0010F19D1636813F0020F72
:103000001ED1636813F0040F23D1636813F0080F17
:1030100028D1636813F0100F2DD1636813F0200FCF
:1030200032D106B101263046F8BD2E469BE700217D
:1030300004F10800FFF7D6F90028DED00646DCE7E9
:10304000012104F10800FFF7CDF90028D9D0064688
:10305000D7E7022104F10800FFF7C4F90028D4D013
:103060000646D2E7002104F12800FFF73FFA0028C6
:10307000CFD00646CDE7012104F12800FFF736FA4C
:103080000028CAD00646C8E7022104F12800FFF74D
:103090002DFA0028C5D00126C5E700BF004402581C
:1030A00008B5FFF76BF9054B1B6AC3F30213044A1B
:1030B000D35C03F01F03D84008BD00BF0044025892
:1030C000ECDC000810B4794B9A6A9C6AC4F3053CA6
:1030D000D96AC1F30011DB6BC3F3CC0301FB03F32B
:1030E00014F47C3F00F0DD8002F0030207EE903A1A
:1030F000F8EE677A012A4BD0022A00F09880002A65
:1031000040F0B280694B1B6813F0200F23D0674951
:103110000A68C2F3C102664BD34007EE103AF8EEDC
:10312000476A07EE10CAB8EE476A86EE867A8B6B5E
:10313000C3F3080306EE903AF8EE666A9FED5D6A07
:1031400067EE867A76EEA77AF7EE006A77EEA67AD1
:1031500027EE277A38E007EE10CAF8EE476A9FEDAF
:10316000566A86EE267A514B9B6BC3F3080306EE34
:10317000903AF8EE666A9FED4F6A67EE867A76EED1
:10318000A77AF7EE006A77EEA67A27EE277A1BE099
:1031900007EE10CAF8EE476A9FED486A86EE267A77
:1031A000424B9B6BC3F3080306EE903AF8EE666A57
:1031B0009FED406A67EE867A76EEA77AF7EE006AB0
:1031C00077EEA67A27EE277A384A936BC3F3462325
:1031D00007EE903AF8EE677AF7EE006A77EEA67A95
:1031E00087EE276ABCEEC66A80ED006A936BC3F374
:1031F000064307EE903AF8EE677A77EEA67A87EE06
:10320000276ABCEEC66A80ED016A936BC3F306635E
:1032100007EE903AF8EE677A77EEA67AC7EE276A5D
:10322000FCEEE66AC0ED026A5DF8044B704707EEFB
:1032300010CAF8EE476A9FED226A86EE267A1B4B8B
:103240009B6BC3F3080306EE903AF8EE666A9FEDB7
:10325000196A67EE867A76EEA77AF7EE006A77EE5D
:10326000A67A27EE277AAFE707EE10CAF8EE476A8C
:103270009FED126A86EE267A0C4B9B6BC3F3080314
:1032800006EE903AF8EE666A9FED0A6A67EE867A75
:1032900076EEA77AF7EE006A77EEA67A27EE277A1F
:1032A00092E70023036043608360BDE70044025857
:1032B0000090D003000000390024744C0024744AAC
:1032C00020BCBE4B10B4794B9A6A9C6AC4F3055C6F
:1032D000D96AC1F300215B6CC3F3CC0301FB03F398
:1032E00014F07C7F00F0DD8002F0030207EE903ADC
:1032F000F8EE677A012A4BD0022A00F09880002A63
:1033000040F0B280694B1B6813F0200F23D067494F
:103310000A68C2F3C102664BD34007EE103AF8EEDA
:10332000476A07EE10CAB8EE476A86EE867A0B6CDB
:10333000C3F3080306EE903AF8EE666A9FED5D6A05
:1033400067EE867A76EEA77AF7EE006A77EEA67ACF
:1033500027EE277A38E007EE10CAF8EE476A9FEDAD
:10336000566A86EE267A514B1B6CC3F3080306EEB1
:10337000903AF8EE666A9FED4F6A67EE867A76EECF
:10338000A77AF7EE006A77EEA67A27EE277A1BE097
:1033900007EE10CAF8EE476A9FED486A86EE267A75
:1033A000424B1B6CC3F3080306EE903AF8EE666AD4
:1033B0009FED406A67EE867A76EEA77AF7EE006AAE
:1033C00077EEA67A27EE277A384A136CC3F34623A2
:1033D00007EE903AF8EE677AF7EE006A77EEA67A93
:1033E00087EE276ABCEEC66A80ED006A136CC3F3F1
:1033F000064307EE903AF8EE677A77EEA67A87EE04
:10340000276ABCEEC66A80ED016A136CC3F30663DB
:1034100007EE903AF8EE677A77EEA67AC7EE276A5B
:10342000FCEEE66AC0ED026A5DF8044B704707EEF9
:1034300010CAF8EE476A9FED226A86EE267A1B4B89
:103440001B6CC3F3080306EE903AF8EE666A9FED34
:10345000196A67EE867A76EEA77AF7EE006A77EE5B
:10346000A67A27EE277AAFE707EE10CAF8EE476A8A
:103470009FED126A86EE267A0C4B1B6CC3F3080391
:1034800006EE903AF8EE666A9FED0A6A67EE867A73
:1034900076EEA77AF7EE006A77EEA67A27EE277A1D
:1034A00092E70023036043608360BDE70044025855
:1034B0000090D003000000390024744C0024744AAA
:1034C00020BCBE4B10B4794B9A6A9C6AC4F3051CAD
:1034D000D96A01F001015B6BC3F3CC0301FB03F379
:1034E00014F47C7F00F0DD8002F0030207EE903AD6
:1034F000F8EE677A012A4BD0022A00F09880002A61
:1035000040F0B280694B1B6813F0200F23D067494D
:103510000A68C2F3C102664BD34007EE103AF8EED8
:10352000476A07EE10CAB8EE476A86EE867A0B6BDA
:10353000C3F3080306EE903AF8EE666A9FED5D6A03
:1035400067EE867A76EEA77AF7EE006A77EEA67ACD
:1035500027EE277A38E007EE10CAF8EE476A9FEDAB
:10356000566A86EE267A514B1B6BC3F3080306EEB0
:10357000903AF8EE666A9FED4F6A67EE867A76EECD
:10358000A77AF7EE006A77EEA67A27EE277A1BE095
:1035900007EE10CAF8EE476A9FED486A86EE267A73
:1035A000424B1B6BC3F3080306EE903AF8EE666AD3
:1035B0009FED406A67EE867A76EEA77AF7EE006AAC
:1035C00077EEA67A27EE277A384A136BC3F34623A1
:1035D00007EE903AF8EE677AF7EE006A77EEA67A91
:1035E00087EE276ABCEEC66A80ED006A136BC3F3F0
:1035F000064307EE903AF8EE677A77EEA67A87EE02
:10360000276ABCEEC66A80ED016A136BC3F30663DA
:1036100007EE903AF8EE677A77EEA67AC7EE276A59
:10362000FCEEE66AC0ED026A5DF8044B704707EEF7
:1036300010CAF8EE476A9FED226A86EE267A1B4B87
:103640001B6BC3F3080306EE903AF8EE666A9FED33
:10365000196A67EE867A76EEA77AF7EE006A77EE59
:10366000A67A27EE277AAFE707EE10CAF8EE476A88
:103670009FED116A86EE267A0C4B1B6BC3F3080391
:1036800006EE903AF8EE666A9FED0A6A67EE867A71
:1036900076EEA77AF7EE006A77EEA67A27EE277A1B
:1036A00092E70023036043608360BDE70044025853
:1036B0000090D003000000390024744C0024744AA8
:1036C00020BCBE4B00B58BB0A0F580730B432DD052
:1036D000A0F500730B437CD0A0F580630B4300F092
:1036E000D080A0F500630B4300F02881A0F5805343
:1036F0000B4300F08781A0F500530B4300F0DF81FE
:10370000A0F500230B4300F02882A0F580330B4383
:1037100000F06B82A0F580430B4300F08D82A0F592
:103720000040084300F0D68200200CE0934B1B6D54
:1037300003F00703042B00F2F782DFE803F0071120
:103740001B0325008E480BB05DF804FB8B4B1868FB
:1037500010F00070F7D007A8FFF7B4FE0898F2E762
:10376000864B186810F00060EDD004A8FFF7AAFCA3
:103770000498E8E7814B186810F00050E3D001A8E6
:10378000FFF7A0FD0198DEE77C4AD36C03F04053BD
:10379000126812F0040F07D033B9784B1B68C3F3DB
:1037A000C1037848D840CEE7744A126812F4807F8B
:1037B00003D0B3F1805F00F0B982704A126812F44E
:1037C000003F00F0B582B3F1005F00F0B38200204B
:1037D000B9E76A4B1B6D03F4E073802B31D015D928
:1037E000C02B00F0A982B3F5807F1ED1634AD36C51
:1037F00003F04053126812F0040F2DD063BB5F4BEF
:103800001B68C3F3C1035F48D8409CE77BB1402BE2
:1038100009D15A4B186810F0006094D004A8FFF743
:1038200051FC04988FE700208DE700208BE7534B75
:10383000186810F0007086D007A8FFF743FE0898BC
:1038400081E74E4B186810F000503FF47CAF01A8A0
:10385000FFF738FD019876E7484A126812F4807F36
:1038600003D0B3F1805F00F06982444A126812F419
:10387000003F00F06582B3F1005F00F0638200203A
:1038800061E73E4B9B6D03F46003B3F5800F35D0C9
:1038900016D9B3F5C00F00F05782B3F5000F20D151
:1038A000364AD36C03F04053126812F0040F30D044
:1038B0007BBB324B1B68C3F3C1033248D84042E79D
:1038C0008BB1B3F5001F0AD12C4B186810F00060C3
:1038D0003FF439AF04A8FFF7F5FB049833E7002065
:1038E00031E700202FE7254B186810F000703FF4F7
:1038F0002AAF07A8FFF7E6FD089824E71F4B1868D2
:1039000010F000503FF41FAF01A8FFF7DBFC019857
:1039100019E71A4A126812F4807F03D0B3F1805F6E
:1039200000F01482154A126812F4003F00F0108271
:10393000B3F1005F00F00E82002004E70F4B9B6D97
:1039400003F0E063B3F1007F3CD01DD9B3F1407FB9
:1039500000F00282B3F1806F27D1084AD36C03F0E4
:103960004053126812F0040F37D0002B35D1034BAF
:103970001B68C3F3C1030348D840E4E6004402587F
:103980000080BB000090D0038BB1B3F1807F0AD1DF
:103990009A4B186810F000603FF4D5AE04A8FFF70A
:1039A00091FB0498CFE60020CDE60020CBE6934BB8
:1039B000186810F000703FF4C6AE07A8FFF782FD4C
:1039C0000898C0E68D4B186810F000503FF4BBAE6D
:1039D00001A8FFF777FC0198B5E6884A126812F44F
:1039E000807F03D0B3F1805F00F0B881834A126812
:1039F00012F4003F00F0B481B3F1005F00F0B28137
:103A00000020A0E67D4B1B6D03F4E043B3F5005F9F
:103A100035D016D9B3F5405F00F0A681B3F5804FDD
:103A200020D1764AD36C03F04053126812F0040F91
:103A300030D07BBB714B1B68C3F3C1037048D840C7
:103A400081E68BB1B3F5805F0AD16C4B186810F03A
:103A500000603FF478AE04A8FFF734FB049872E6E8
:103A6000002070E600206EE6644B186810F00070CD
:103A70003FF469AE07A8FFF725FD089863E65F4BA2
:103A8000186810F000503FF45EAE01A8FFF71AFC72
:103A9000019858E6594A126812F4807F03D0B3F1B6
:103AA000805F00F06381554A126812F4003F00F015
:103AB0005F81B3F1005F00F05D81002043E64F4B72
:103AC0001B6D03F4E023B3F5403F32D00BD8B3F5C0
:103AD000803F18D0B3F5003F20D013B9FEF770FC3B
:103AE00031E600202FE6B3F5802F2ED0B3F5A02FBE
:103AF00007D1424B186810F400303FF424AE41481F
:103B000021E600201FE63D4B186810F000603FF4EE
:103B10001AAE04A8FFF7D6FA059814E6374B1868D2
:103B200010F000503FF40FAE01A8FFF7CBFB029856
:103B300009E6324B186810F004003FF404AE1B682D
:103B4000C3F3C1032E48D840FDE52C4B186810F490
:103B500080703FF4F8AD2C48F5E5284B9B6D03F4DD
:103B60004033B3F5803F10D0B3F5003F18D0002BA1
:103B700040F00281214B186810F000603FF4E3AD83
:103B800004A8FFF79FFA0498DDE51C4B186810F0B5
:103B900000503FF4D8AD01A8FFF794FB0398D2E59D
:103BA000164AD36C03F04053126812F0040F07D08A
:103BB00033B9124B1B68C3F3C1031148D840C2E5A7
:103BC0000E4A126812F4807F03D0B3F1805F00F0D8
:103BD000D5800A4A126812F4003F00F0D180B3F198
:103BE000005F00F0CF800020ADE5044BDB6C13F4E8
:103BF00080330BD0ABB90020A5E500BF00440258CC
:103C00000090D00340787D0100093D005F4B1868AB
:103C100010F000703FF497AD07A8FFF753FC089829
:103C200091E55A4B186810F000603FF48CAD04A881
:103C3000FFF748FA069886E5544B9B6D03F0E04386
:103C4000B3F1405F32D00BD8B3F1805F18D0B3F13D
:103C5000005F20D013B9FFF723FA74E5002072E566
:103C6000B3F1804F2ED0B3F1A04F07D1474B186866
:103C700010F400303FF467AD454864E5002062E58C
:103C8000424B186810F000603FF45DAD04A8FFF7E8
:103C900019FA059857E53D4B186810F000503FF4AD
:103CA00052AD01A8FFF70EFB02984CE5374B1868A0
:103CB00010F004003FF447AD1B68C3F3C10335485F
:103CC000D84040E5314B186810F480703FF43BADAC
:103CD000314838E52D4B1B6D03F04053B3F1805F45
:103CE0000CD0B3F1005F14D0002B4DD1274B1868D6
:103CF00010F400303FF427AD254824E5234B186825
:103D000010F000703FF41FAD07A8FFF7DBFB089829
:103D100019E51E4B186810F000603FF414AD04A8BC
:103D2000FFF7D0F905980EE500200CE51A480AE5E2
:103D3000002008E5164806E5184804E5164802E59F
:103D4000002000E51248FEE41448FCE41248FAE4BE
:103D50000020F8E40E48F6E41048F4E40E48F2E4DB
:103D60000020F0E40A48EEE40C48ECE40A48EAE4F7
:103D70000020E8E40648E6E40020E4E40648E2E443
:103D80000020E0E40248DEE40020DCE400440258C5
:103D900040787D010090D00300093D000080BB0009
:103DA000F0B583B000236BE085685E000324B44067
:103DB00025EA0405CC68B4402C438460456825EAB4
:103DC0000C054C68C4F300149C402C43446069E02B
:103DD000DD08083550F8254003F0070C4FEA8C0C3D
:103DE0004FF00F0E0EFA0CFE24EA0E0E0C6904FAC8
:103DF0000CF444EA0E0440F825406BE0092400E08E
:103E0000002404FA0EF42C430CF1020C694D45F821
:103E10002C404FF0B0442568D44325EA02064F6891
:103E200017F4801F01D042EA05064FF0B0452E601E
:103E30006D6804EA05064F6817F4001F01D042EAD6
:103E400005064FF0B0456E60D5F8845004EA0506CB
:103E50004F6817F4003F01D042EA05064FF0B04525
:103E6000C5F88460D5F880502C404E6816F4803F29
:103E700001D042EA05044FF0B042C2F8804001335D
:103E80000A6832FA03F400F092804FF0010C0CFA49
:103E900003FC1CEA0202F2D04C6804F00304013C6B
:103EA000012C81D94C6804F00304032C0CD0C468A5
:103EB0005D004FF0030C0CFA05FC24EA0C0C8C6836
:103EC000AC4044EA0C04C4604C6804F00304022CC7
:103ED0003FF47EAF04684FEA430E4FF0030C0CFA38
:103EE0000EFC24EA0C0C4C6804F0030404FA0EF4F3
:103EF00044EA0C0404604C6814F4403FBFD02E4CDC
:103F0000D4F8F45045F00205C4F8F450D4F8F44065
:103F100004F002040194019C4FEA930C0CF1020599
:103F2000244C54F8255003F0030E4FEA8E0E0F2454
:103F300004FA0EF425EA0405204CA0423FF460AFD9
:103F400004F58064A04222D004F58064A04220D011
:103F500004F58064A0421ED004F58064A0421CD009
:103F600004F58064A0421AD004F58064A04218D001
:103F700004F58064A04216D004F58064A04214D0F9
:103F800004F58064A0423FF439AF0A2439E70124E4
:103F900037E7022435E7032433E7042431E7052417
:103FA0002FE706242DE707242BE7082429E703B091
:103FB000F0BD00BF00040058004402580000025841
:103FC000002331FA03F200F09D80F0B52EE00925C0
:103FD00000E0002505FA0CF5A54272D004685D00EA
:103FE0004FF0030C0CFA05FC44EA0C0404604FEAA1
:103FF000D30E0EF1080E50F82E4003F00706B6005F
:104000000F25B54024EA050440F82E40C46824EA90
:104010000C04C460446824EA02024260826822EA16
:104020000C028260013331FA03F26AD001229A4015
:1040300012EA010EF6D09E08B51C334C54F8254008
:1040400003F0030C4FEA8C0C0F2505FA0CF73C40EB
:104050002E4DA842BDD005F58065A84221D005F5BA
:104060008065A8421FD005F58065A8421DD005F5E2
:104070008065A8421BD005F58065A84219D005F5DA
:104080008065A84217D005F58065A84215D005F5D2
:104090008065A84213D005F58065A84297D00A250F
:1040A00098E7012596E7022594E7032592E7042582
:1040B00090E705258EE706258CE707258AE7082582
:1040C00088E74FF0B044D4F8805025EA0E05C4F8D4
:1040D0008050D4F8845025EA0E05C4F884506568F1
:1040E00025EA0E056560256825EA0E052560DFF8DE
:1040F00018C0B41C5CF8245025EA07054CF824507D
:104100006CE7F0BD704700BF000400580000025883
:104110000369194201D001207047002070470AB19D
:1041200081617047090481617047436901EA0302B4
:1041300021EA030141EA024181617047F0B4876DD1
:104140000468664E664DAC4218BFB44242D0183582
:10415000AC423FD01835AC423CD01835AC4239D0D7
:104160001835AC4236D01835AC4233D01835AC4295
:1041700030D005F55675AC422CD01835AC4229D05C
:104180001835AC4226D01835AC4223D01835AC4295
:1041900020D01835AC421DD01835AC421AD0183595
:1041A000AC4217D04F4DAC4214D01435AC4211D0B4
:1041B0001435AC420ED01435AC420BD01435AC42A1
:1041C00008D01435AC4205D01435AC4202D01435B9
:1041D000AC4207D1446E856E6560C46E14B1046F45
:1041E000456F656004683D4E3D4DAC4218BFB4421A
:1041F00052D01835AC424FD01835AC424CD018359F
:10420000AC4249D01835AC4246D01835AC4243D008
:104210001835AC4240D005F55675AC423CD0183547
:10422000AC4239D01835AC4236D01835AC4233D018
:104230001835AC4230D01835AC422DD01835AC42D0
:104240002AD01835AC4227D0264E274DAC4218BF95
:10425000B44211D0254DAC420ED01435AC420BD037
:104260001435AC4208D01435AC4205D01435AC42FC
:1042700002D01435AC4224D1C46D04F01F050124D2
:10428000AC407C60046863608368402B20D0036886
:1042900099600368DA6014E0C46D04F01F0C3F24D9
:1042A00004FA0CF4BC6005682C6824F480242C60AB
:1042B000046863608368402B05D0036899600368D5
:1042C000DA60F0BC704703689A600368D960F8E769
:1042D00003689A600368D960F3E700BF10000240EA
:1042E00028000240085402581C5402583054025806
:1042F00003682749274A934218BF8B422FD01832B0
:1043000093422CD01832934229D01832934226D0AF
:104310001832934223D01832934220D0183293425D
:104320001DD002F55672934219D01832934216D01E
:104330001832934213D01832934210D0183293425D
:104340000DD0183293420AD01832934207D0183257
:10435000934204D023F0FF038365806D704710B44F
:10436000D9B210390C4AA2FB0142C2F302120B4C23
:10437000A25CC2655F2907D96FF309030433836523
:10438000806D5DF8044B70476FF309038365F7E7B1
:104390001000024028000240ABAAAAAAE4DC0008F0
:1043A00083699BB9836A012B0AD0022B02D00BB11F
:1043B00000207047C36A13F0807F2AD10020704725
:1043C000C36AB3F1C07F26D000207047B3F5005F09
:1043D0000AD0836A022B26D9032B26D1C36A13F095
:1043E000807F24D100207047836A032B03D8DFE845
:1043F00003F01404140A00207047C36A13F0807F8E
:104400000DD100207047C36AB3F1C07F09D00020EE
:10441000704701207047012070470120704701203C
:10442000704701207047012070470020704701202D
:104430007047000003682149214A934218BF8B420C
:1044400027D01432934224D01432934221D0143214
:1044500093421ED0143293421BD01432934218D090
:104460001432934215D0DAB2103A1649A1FB021267
:10447000120915491944A8291ED9144B13449B004D
:104480000366134B436602F01F02012393408366C9
:104490007047DBB2083B0F4AA2FB03230E4A02EB34
:1044A0001312920002660D4A4266C3F304130122FE
:1044B00002FA03F3836670470832DEE708540258B5
:1044C0001C540258ABAAAAAAF0FBFDBF0082001040
:1044D00080080240CDCCCCCC009600168058025803
:1044E00001794A1E072A2BD830B40368154D164CA3
:1044F000A34218BFAB4218D01434A34215D01434D1
:10450000A34212D01434A3420FD01434A3420CD0CF
:104510001434A34209D01434A34206D00B4B0B44ED
:104520009B00C3660A4B036705E00A4B0B449B00E4
:10453000C366094B036701239340436730BC704750
:10454000704700BF085402581C5402583F820010A4
:10455000400902403F9600164059025870B5044683
:1045600001F042FE002C00F0B98105462368534952
:10457000534A934218BF8B420CBF0121002150D0F7
:10458000183293424DD0183293424AD01832934297
:1045900047D01832934244D01832934241D0183257
:1045A00093423ED002F5567293423AD0183293426B
:1045B00037D01832934234D01832934231D0183267
:1045C00093422ED0183293422BD01832934228D0E7
:1045D0001832934225D03B493B4A934218BF8B4245
:1045E00000F03481394A934200F030811432934212
:1045F00000F02C811432934200F02881143293424F
:1046000000F024811432934200F02081143293424E
:1046100000F01C8140236365032384F835300120BA
:104620004AE0022284F83520002284F8342079BB45
:10463000274A93422CD01832934229D01832934201
:1046400026D01832934223D01832934220D0183209
:1046500093421DD002F55672934219D018329342FC
:1046600016D01832934213D01832934210D0183219
:1046700093420DD0183293420AD01832934207D099
:104680001832934204D01A6822F001021A6003E043
:104690001A6822F001021A6023681A6812F0010FEA
:1046A00018D001F0A1FD431B052BF5D9202363652C
:1046B000032384F83530012070BD00BF1000024094
:1046C00028000240085402581C5402583054025822
:1046D000400002401A6882491140A268E068024323
:1046E0002069024360690243A0690243E069024312
:1046F000206A02430A43616A042900F098807949DC
:1047000009686FF30F01B1F1005F10D361682E29C2
:1047100040F2928052290AD83F2908D33F39724883
:1047200020FA01F111F0010F01D042F480121A6059
:104730002668756925F00705636A1D43042B08D1B7
:10474000A36A1D43E36A23B12046FFF729FE002830
:1047500076D175612046FFF7CBFDE36D03F01F02B4
:104760003F239340836023686049614A934218BFA6
:104770008B4242D0183293423FD0183293423CD001
:104780001832934239D01832934236D018329342BD
:1047900033D01832934230D002F5567293422CD067
:1047A0001832934229D01832934226D018329342BD
:1047B00023D01832934220D0183293421DD01832A1
:1047C00093421AD01832934217D04A4A934214D0D7
:1047D0001432934211D0143293420ED014329342C9
:1047E0000BD01432934208D01432934205D01432C5
:1047F000934202D01432934213D12046FFF71AFE9F
:10480000A368802B5DD0236E22791A60636EA26E3E
:104810005A606368013B072B56D90023E366236780
:10482000636700206065012384F8353044E7E16A5E
:10483000206B01430A4362E72929FFF478AF74E74C
:1048400040236365012084F8350035E7022284F8AF
:104850003520002284F8342019686FF31011A26803
:10486000402A2CD0802A27D00022E06842EAD002D9
:10487000206942EAD002606942EAD002A06942EAB5
:10488000D002E06942EAD002206A42EA10120A43EA
:104890001A602268184B1344184AA2FB03231B0911
:1048A0009B00E3652046FFF723FDE26D02F01F0148
:1048B00001228A40426056E74FF48042D5E7102239
:1048C000D3E7002363609EE72046FFF709FEE36E0F
:1048D00000221A60236F626F5A60A2E70120EBE6A4
:1048E0003F8010FE0010005C0F030F00100002401C
:1048F0002800024008540258F8ABFDA7CDCCCCCC20
:10490000002800F0DB8010B5044603686C496D4A4E
:10491000934218BF8B422FD0183293422CD01832BA
:10492000934229D01832934226D01832934223D092
:104930001832934220D0183293421DD002F556729D
:10494000934219D01832934216D01832934213D0A2
:104950001832934210D0183293420DD0183293423D
:104960000AD01832934207D01832934204D01A6802
:1049700022F001021A6003E01A6822F001021A60B4
:1049800023684F494F4A934218BF8B4244D0183294
:10499000934241D0183293423ED0183293423BD0DA
:1049A0001832934238D01832934235D0183293429D
:1049B00032D002F5567293422ED0183293422BD049
:1049C0001832934228D01832934225D0183293429D
:1049D00022D0183293421FD0183293421CD0183282
:1049E000934219D03849394A934218BF8B4247D075
:1049F000374A934244D01432934241D01432934206
:104A00003ED0143293423BD01432934238D0143209
:104A1000934235D0012032E000221A6023685A60A8
:104A200023689A602368DA6023681A612368212268
:104A30005A612046FFF75CFCE36D03F01F023F2341
:104A4000934083602046FFF7F5FC236E23B10022DC
:104A50001A60636EA26E5A606368013B072B23D90C
:104A60000020E06620676067E06320646064A06403
:104A7000E0642065606584F8350084F8340010BD7A
:104A800000221A6023685A6023689A602368DA60FB
:104A900023681A612046FFF72BFCE36D03F01F0229
:104AA000012393404360CDE72046FFF719FDE36EF5
:104AB00000221A60236F626F5A60D1E701207047AD
:104AC0001000024028000240085402581C540258AA
:104AD00030540258002800F03E8170B5044690F82A
:104AE0003400012800F03981012084F8340094F862
:104AF0003500C0B2012807D04FF40063636500237E
:104B000084F83430012070BD022084F83500002084
:104B100060652068924E934DA84218BFB0422FD0D6
:104B20001835A8422CD01835A84229D01835A842EB
:104B300026D01835A84223D01835A84220D01835E1
:104B4000A8421DD005F55675A84219D01835A842BF
:104B500016D01835A84213D01835A84210D01835F1
:104B6000A8420DD01835A8420AD01835A84207D05F
:104B70001835A84204D0056825F00105056003E05A
:104B8000056825F0010505602046FFF7D7FA236880
:104B90007349744A934218BF8B4238D018329342FB
:104BA00035D01832934232D0183293422FD0183277
:104BB00093422CD01832934229D01832934226D0F7
:104BC00002F55672934222D0183293421FD0183207
:104BD00093421CD01832934219D01832934216D007
:104BE0001832934213D01832934210D018329342A5
:104BF0000DD01A6822F00E0242F00A021A60236CED
:104C000093B12268136843F0040313600CE01A6840
:104C100022F01E0242F016021A60236C23B12268B1
:104C2000136843F00803136023684D494D4A9342CB
:104C300018BF8B4242D0183293423FD01832934271
:104C40003CD01832934239D01832934236D01832C1
:104C5000934233D01832934230D002F556729342C9
:104C60002CD01832934229D01832934226D01832D1
:104C7000934223D01832934220D0183293421DD051
:104C8000183293421AD01832934217D0364A9342C0
:104C900014D01432934211D0143293420ED01432F5
:104CA00093420BD01432934208D01432934205D071
:104CB0001432934202D0143293420ED1236E1A68FA
:104CC00012F4803F03D01A6842F480721A60E36ED7
:104CD0001BB11A6842F480721A6023682049214A85
:104CE000934218BF8B4230D0183293422DD01832E5
:104CF00093422AD01832934227D01832934224D0BC
:104D00001832934221D0183293421ED002F55672C7
:104D100093421AD01832934217D01832934214D0CB
:104D20001832934211D0183293420ED01832934267
:104D30000BD01832934208D01832934205D01A682B
:104D400042F001021A600020DDE61A6842F001021A
:104D50001A600020D7E6012070470220D3E600BF8A
:104D600010000240280002400854025870B5044662
:104D700001F03AFA002C00F09181054694F83530A4
:104D8000DBB2022B06D080236365002384F8343025
:104D9000012070BD23688C498C4A934218BF8B4216
:104DA00030D0183293422DD0183293422AD0183284
:104DB000934227D01832934224D01832934221D004
:104DC000183293421ED002F5567293421AD018320E
:104DD000934217D01832934214D01832934211D014
:104DE000183293420ED0183293420BD018329342AD
:104DF00008D01832934205D01A6822F00E021A60C9
:104E0000266809E01A6822F01E021A6022685369B7
:104E100023F080035361266823686B496B4A9342F1
:104E200018BF8B4242D0183293423FD0183293427F
:104E30003CD01832934239D01832934236D01832CF
:104E4000934233D01832934230D002F556729342D7
:104E50002CD01832934229D01832934226D01832DF
:104E6000934223D01832934220D0183293421DD05F
:104E7000183293421AD01832934217D0544A9342B0
:104E800014D01432934211D0143293420ED0143203
:104E900093420BD01432934208D01432934205D07F
:104EA0001432934202D01432934204D1226E13681A
:104EB00023F48073136023684349444A934218BF24
:104EC0008B422FD0183293422CD01832934229D0E3
:104ED0001832934226D01832934223D0183293428C
:104EE00020D0183293421DD002F55672934219D049
:104EF0001832934216D01832934213D0183293428C
:104F000010D0183293420DD0183293420AD0183282
:104F1000934207D01832934204D01A6822F001025B
:104F20001A6003E01A6822F001021A60336813F075
:104F3000010F0ED001F058F9431B052BF6D92023A1
:104F40006365032384F83530002384F8343001206E
:104F50001FE723681C491D4A934218BF8B4239D072
:104F60001832934236D01832934233D018329342DB
:104F700030D0183293422DD0183293422AD01832B2
:104F8000934227D002F55672934223D018329342AF
:104F900020D0183293421DD0183293421AD01832C2
:104FA000934217D01832934214D01832934211D042
:104FB000183293420ED0A16DE36D03F01F0201235E
:104FC00093404B600DE000BF1000024028000240FB
:104FD00008540258A16DE36D03F01F023F23934074
:104FE0008B6023682E492F4A934218BF8B4242D0D0
:104FF000183293423FD0183293423CD01832934239
:1050000039D01832934236D01832934233D0183206
:10501000934230D002F5567293422CD0183293420C
:1050200029D01832934226D01832934223D0183216
:10503000934220D0183293421DD0183293421AD096
:105040001832934217D0184A934214D01432934224
:1050500011D0143293420ED0143293420BD014323A
:10506000934208D01432934205D01432934202D0B6
:10507000143293420BD1636EA26E5A60E36E33B169
:105080001A6822F480721A60236F626F5A600123DB
:1050900084F83530002084F834007AE6012078E680
:1050A000100002402800024008540258002800F076
:1050B000288108B5024690F83530DBB2022B03D0C8
:1050C00080234365012008BD0368904890498B42C6
:1050D00018BF83420CBF0120002065D018318B42DD
:1050E00062D018318B425FD018318B425CD01831BE
:1050F0008B4259D018318B4256D018318B4253D045
:1051000001F556718B424FD018318B424CD018317B
:105110008B4249D018318B4246D018318B4243D054
:1051200018318B4240D018318B423DD018318B4220
:105130003AD0196821F00E01196013687348744958
:105140008B4218BF83426AD072498B4267D01831B4
:105150008B4264D018318B4261D018318B425ED0C3
:1051600018318B425BD018318B4258D001F5567103
:105170008B4254D018318B4251D018318B424ED0D3
:1051800018318B424BD018318B4248D018318B42AA
:1051900045D018318B4242D018318B423FD019682C
:1051A00021F0010119603EE0042182F8351080BB36
:1051B000584A93422DD0183293422AD01832934243
:1051C00027D01832934224D01832934221D018327B
:1051D00093421ED002F5567293421AD0183293426F
:1051E00017D01832934214D01832934211D018328B
:1051F00093420ED0183293420BD01832934208D00B
:105200001832934205D01A6822F001021A60002079
:1052100059E71A6822F001021A60002053E7196862
:1052200021F0010119601368384839498B4218BFD1
:10523000834242D018318B423FD018318B423CD050
:1052400018318B4239D018318B4236D018318B420D
:1052500033D018318B4230D001F556718B422CD0AF
:1052600018318B4229D018318B4226D018318B420D
:1052700023D018318B4220D018318B421DD01831E9
:105280008B421AD018318B4217D023498B4214D04D
:1052900014318B4211D014318B420ED014318B4219
:1052A0000BD014318B4208D014318B4205D014310D
:1052B0008B4202D014318B4217D1116E0B6823F44C
:1052C00080730B60906DD36D03F01F0101238B4041
:1052D0004360536E916E5960D36E33B1196821F4F7
:1052E00080711960136F516F5960012382F8353056
:1052F000002382F83430136D2BB1104698470020FC
:10530000E1E6012070470020DDE600BF100002400A
:10531000280002404000024008540258F0B583B013
:105320000446002301937D4B1D687D4BA3FB05358F
:10533000AD0A876D3E68D7F800C0036879497A489E
:10534000834218BF8B420CBF0120002061D0774AF6
:1053500093425ED0183293425BD01832934258D0B9
:105360001832934255D01832934252D01832934299
:105370004FD002F5567293424BD01832934248D028
:105380001832934245D01832934242D01832934299
:105390003FD0183293423CD01832934239D0183261
:1053A000934236D06249634A934218BF8B4212D06F
:1053B000614A93420FD0143293420CD0143293427C
:1053C00009D01432934206D01432934203D01432DF
:1053D000934240F061821A68E16D01F01F010420E0
:1053E000884010EA0C0F00F0A78212F0040F00F0C2
:1053F000A382786012F4004F00F05A8212F4803FCA
:1054000040F05082A36C002B00F046822046984763
:1054100042E2E26D02F01F0108228A40324241D08E
:1054200070BB424A93422BD01832934228D0183294
:10543000934225D01832934222D0183293421FD083
:10544000183293421CD002F55672934218D018328B
:10545000934215D01832934212D0183293420FD093
:10546000183293420CD01832934209D0183293422A
:1054700006D01832934203D01A68C2F3C00202E089
:105480001A68C2F380026AB11A6822F004021A6034
:10549000E36D03F01F0208239340BB60636D43F08C
:1054A00001036365E26D02F01F0226FA02F313F0B6
:1054B000010F47D023681B481B498B4218BF83420A
:1054C0003CD018318B4239D018318B4236D018314C
:1054D0008B4233D018318B4230D018318B422DD0D3
:1054E00018318B422AD001F556718B4226D01831E3
:1054F0008B4223D018318B4220D018318B421DD0E3
:1055000018318B421AD018318B4217D018318B4288
:1055100014D018318B4211D01B6813E00C0000240A
:10552000B5814E1B1000024028000240400002409E
:10553000085402581C540258305402585B6913F046
:10554000800F3BD1E36D03F01F03042202FA03F343
:1055500033423FD02268964896498A4218BF824219
:1055600034D018318A4231D018318A422ED01831C5
:105570008A422BD018318A4228D018318A4225D04D
:1055800018318A4222D001F556718A421ED0183154
:105590008A421BD018318A4218D018318A4215D05D
:1055A00018318A4212D018318A420FD018318A42FB
:1055B0000CD018318A4209D013680BE001239340C4
:1055C000BB60636D43F002036365BBE7126812F0D2
:1055D000020F3DD1E36D03F01F03102202FA03F323
:1055E00033425FD02268724872498A4218BF8242B1
:1055F00034D018318A4231D018318A422ED0183135
:105600008A422BD018318A4228D018318A4225D0BC
:1056100018318A4222D001F556718A421ED01831C3
:105620008A421BD018318A4218D018318A4215D0CC
:1056300018318A4212D018318A420FD018318A426A
:105640000CD018318A4209D01268C2F3800208E0F7
:10565000BB60636D43F004036365BBE71268C2F38C
:10566000C002FAB1BB6023681A6812F4802F0DD013
:105670001B6813F4002F04D1236C9BB1204698477C
:1056800010E0A36C73B1204698470BE01A6812F43F
:10569000807F03D11A6822F008021A60236C0BB1D4
:1056A00020469847E36D03F01F03202202FA03F31C
:1056B000334200F0938022683D483E498A4218BF39
:1056C00082422ED018318A422BD018318A4228D0FB
:1056D00018318A4225D018318A4222D018318A42A4
:1056E0001FD018318A421CD001F556718A4218D059
:1056F00018318A4215D018318A4212D018318A42A4
:105700000FD018318A420CD018318A4209D0183192
:105710008A4206D018318A4203D01268C2F340028E
:1057200002E01268C2F30012002A57D0BB6094F85E
:105730003530DBB2042B0ED023681A6812F4802FA8
:105740003AD01B6813F4002F2DD1636C002B45D089
:105750002046984742E02268136823F0160313603E
:105760002268536923F080035361236CBBB1226824
:10577000136823F008031360E36D03F01F023F2357
:105780009340BB60012384F83530002384F8343023
:10579000236D002B00F08080204698477CE0A36CAE
:1057A000002BE4D1E8E7E36BC3B12046984715E04E
:1057B00010000240280002401A6812F4807F09D1CC
:1057C0001A6822F010021A60012384F83530002391
:1057D00084F83430E36B0BB120469847636D002B9F
:1057E0005AD0636D13F0010F52D0042384F8353082
:1057F00023689649964A934218BF8B422FD018329D
:1058000093422CD01832934229D01832934226D09A
:105810001832934223D01832934220D01832934248
:105820001DD002F55672934219D01832934216D009
:105830001832934213D01832934210D01832934248
:105840000DD0183293420AD01832934207D0183242
:10585000934204D01A6822F001021A6003E01A6829
:1058600022F001021A60019B01330193AB4204D87C
:1058700023681B6813F0010FF5D123681B6813F030
:10588000010F0BD0032384F83530002384F8343023
:10589000E36C0BB12046984703B0F0BD012384F8B8
:1058A0003530F2E7236C002BF6D020469847F3E71B
:1058B00012F0200F3AD123686449654A934218BF19
:1058C0008B422FD0183293422CD01832934229D0D9
:1058D0001832934226D01832934223D01832934282
:1058E00020D0183293421DD002F55672934219D03F
:1058F0001832934216D01832934213D01832934282
:1059000010D0183293420DD0183293420AD0183278
:10591000934207D01832934204D01A6822F004024E
:105920001A6003E01A6822F008021A60236C002B48
:10593000B2D020469847AFE70220884010EA0C0F0B
:1059400060D012F0020F5DD0786012F4004F0ED0DC
:1059500012F4803F05D1636C002B9DD02046984700
:105960009AE7E36B002B97D02046984794E712F014
:10597000200F40D123683549354A934218BF8B42E6
:105980002FD0183293422CD01832934229D018329B
:10599000934226D01832934223D01832934220D01B
:1059A000183293421DD002F55672934219D0183224
:1059B000934216D01832934213D01832934210D02B
:1059C000183293420DD0183293420AD018329342C3
:1059D00007D01832934204D01A6822F00A021A60E3
:1059E00003E01A6822F014021A60012384F83530AB
:1059F000002384F83430E36B002B3FF44DAF204696
:105A0000984749E7082000FA01F111EA0C0F3FF42A
:105A100043AF12F0080F3FF43FAF1A6822F00E02B6
:105A20001A60E36D03F01F03012202FA03F37B60A7
:105A3000626584F83520002384F83430E36C002B51
:105A40003FF42AAF2046984726E700BF10000240E7
:105A50002800024070B40468264E274DAC4218BF9F
:105A6000B44233D01835AC4230D01835AC422DD0CA
:105A70001835AC422AD01835AC4227D01835AC4284
:105A800024D01835AC4221D005F55675AC421DD056
:105A90001835AC421AD01835AC4217D01835AC4284
:105AA00014D01835AC4211D01835AC420ED0183590
:105AB000AC420BD01835AC4208D063608368402BF1
:105AC00013D0036899600368DA6007E06360836855
:105AD000402B05D0036899600368DA6070BC70479A
